:020000040800F2
:100000007015002065010008C7080008D704000823
:10001000C508000831020008A9100008000000000F
:10002000000000000000000000000000F50A0008C9
:1000300045020008000000005D090008B10B00083F
:100040007F0100087F0100087F0100087F01000890
:100050007F0100087F0100087F0100087F01000880
:100060007F0100087F0100087F0100087F01000870
:100070007F0100087F0100087F0100087F01000860
:100080007F0100087F0100087F0100087F01000850
:100090007F0100087F0100087F0100087F01000840
:1000A0007F0100087F0100087F0100087F01000830
:1000B000110C00087F010008A50C00087F01000852
:1000C0007F0100087F0100087F0100087F01000810
:1000D0007F0100081D0E0008290E00087F0100089E
:1000E000610200087F0100087F0100080000000095
:1000F0000000000000000000000000000000000000
:1001000000000000000000007F0100087F010008DF
:100110007F0100087F0100087F0100087F010008BF
:100120007F0100087F0100087F0100087F010008AF
:100130007F0100087F0100087F0100087F0100089F
:100140007F0100087F0100087F0100087F0100088F
:10015000DFF80CD000F02AF800480047FF12000832
:10016000701500200648804706480047FEE7FEE776
:10017000FEE7FEE7FEE7FEE7FEE7FEE7FEE7FEE757
:10018000B50B00085101000840EA01039B0703D0AA
:1001900009E008C9121F08C0042AFAD203E011F8C6
:1001A000013B00F8013B521EF9D27047064C074D47
:1001B00006E0E06840F0010394E807009847103437
:1001C000AC42F6D3FFF7C8FF24130008441300081D
:1001D0001CB54FF4A06000F0B7FB28208DF800009C
:1001E00000208DF8010001208DF802008DF8030039
:1001F000684600F07AFB0121212000F0BDFB482079
:100200008DF8070003208DF80600C002ADF8040049
:1002100001A9064800F0D6F80B21032000F0BEF833
:100220000C21032000F0BAF81CBD000000140140AE
:10023000FEE7000008B10020704701487047000049
:10024000F0000020704742F210714FF47A721046AD
:10025000401E0028FCDC491E0029F8DC7047000025
:1002600070B54FF40066304600F046F80E4D01249C
:1002700040B1304600F01EF81021284600F029F960
:100280000A4804604FF48056304600F035F80028E4
:1002900008D0304600F00EF88021284600F019F909
:1002A0000348046070BD00000014014008000020F5
:1002B0000C00002001490860704700001404014050
:1002C0007CB500244FF400608DF804400C250090AC
:1002D0008DF8055001268DF80660684600F01CF880
:1002E00030038DF8044000908DF805508DF80660BD
:1002F000684600F011F87CBD064B014600201A68E4
:100300005B6902EA01020B4202D0002A00D0012000
:10031000704700000004014030B51F4A817903682E
:1003200099B311460C6824EA03040C604B68046816
:1003300023EA04034B60047904EB02031C6805689C
:1003400044EA05041C608B68046823EA04038B609C
:10035000CB68046823EA0403CB604379A1F580618C
:10036000102B05D099180A68006802430A6030BD56
:1003700001F581610A68036842EA03020A604A687B
:10038000006842EA00024A6030BDFFE7007910448D
:10039000016899430160F7E70004014010B58A073E
:1003A00021F003040649130F21440F228C689A4060
:1003B00094438C608A68984002438A6010BD0000B4
:1003C000000001402DE9F041CA780025D30602F073
:1003D0000F0201D58B781A430B884FF00F084FF0AE
:1003E000010C13F0FF0F1CD0D0F800400E880CFA5F
:1003F00005F31E409E4210D1AF0008FA07F624EA2A
:10040000060602FA07F43443CE78282E02D0482E8E
:1004100002D002E0436100E003616D1C082DE5D3CA
:1004200004600B88FF2B1DD94468002505F10806E0
:100430000CFA06F30E881E409E420FD1AF0008FA58
:1004400007F624EA060602FA07F43443CE78282E8B
:1004500000D14361CE78482E00D103616D1C082D78
:10046000E4D34460BDE8F081F0B5144C002801DA13
:10047000E36900E06368420D120185B2C0F30157E1
:100480009540C0F30346032F05D0C2020AD50322CC
:10049000B240934307E023F07062636823F0706317
:1004A000636002E0AB4343F0706201B12A4300286D
:1004B00001DAE261F0BD6260F0BD000000000140C1
:1004C0000246002092680A4200D001207047416134
:1004D000704701617047FEE7F0B585B0012144F235
:1004E000250000F049FA0121480400F039FA4FF4E0
:1004F0000070ADF8000018242A4F8DF80340032542
:100500008DF8025069463846FFF75CFF3815ADF8A4
:10051000000004268DF8036069463846FFF752FF55
:1005200001210820FFF7A0FF2020ADF800008DF882
:1005300003401D4C8DF8025069462046FFF742FFEC
:100540004020ADF800008DF8036069462046FFF7B3
:1005500039FF4FF4E13001900020ADF80800ADF80C
:100560000A00ADF80C00ADF810000C200F4CADF8EF
:100570000E0001A9204600F099FC0D4D01A9284666
:1005800000F094FC0121204600F04FFC0121284698
:1005900000F04BFC012240F22551204600F06EFC99
:1005A00005B0F0BD000801400014014000380140D2
:1005B0000044004038B50121202000F0DDF99C20E6
:1005C000ADF8000003208DF8020010200B4C8DF8D0
:1005D000030069462046FFF7F5FE04212046FFF799
:1005E00076FF08212046FFF772FF10212046FFF713
:1005F0006EFF80212046FFF76AFF38BD00140140DE
:1006000008B50121112000F0B7F948208DF803004A
:1006100003208DF802000220ADF800006946024870
:10062000FFF7D0FE08BD0000000801402DE9F84F9B
:1006300041A0424C006800250090414FA560E56054
:10064000F878404EDFF800914FF00A0A4FF4006846
:10065000012835D13A794FF4FA61B2FBFAF000FB88
:1006600001FB04213046FFF732FFA0680128F8D1D2
:100670005846A56000F03AFB0121344800F057FBD2
:100680000AE000BFFFF7DFFD41464846FFF721FFC4
:1006900004213046FFF71DFF60680228F2D11021C7
:1006A0003046FFF714FF414648466560FFF70FFFED
:1006B00004213046FFF70BFF0421684600F0ECF8F8
:1006C000F878022836D13A794FF4FA61B2FBFAF79A
:1006D0004F4303E008213046FFF7F9FEE0680128A8
:1006E000F8D13846E56000F001FB0121174800F021
:1006F0001EFB4F460AE000BFFFF7A5FD4146384606
:10070000FFF7E7FE08213046FFF7E3FE60680228A6
:10071000F2D180213046FFF7DAFE41463846656067
:10072000FFF7D5FE08213046FFF7D1FE04216846C9
:1007300000F0B2F8BDE8F88FF9F1060000000020E3
:100740004C00002000140140000C01400008004053
:1007500010B516A086B0D0E9001280680091CDE9EE
:10076000012015A0184CD0E9001280680590CDE951
:1007700003121449C87820B1012811D1087A012840
:1007800010D102212046FFF79BFE58B102212046DE
:10079000FFF796FE012803D1092103A800F07CF899
:1007A00006B010BD09216846F8E70000F9F20D0017
:1007B0000000000000000000F9F20D000000000041
:1007C000010000004C000020001001403EB51DA0BB
:1007D0001DA2006800901DA112681D4801920968C1
:1007E0000291017800292BD01A4C00250570A07FBA
:1007F000A178884202D0042101A804E02178F829D8
:1008000004D0042102A800F047F818E0401E81B28D
:10081000104800F07BFD0F49A27F491E515C8142C8
:1008200002D004216846EEE76078F12802D0F22871
:1008300003D004E0FFF7FAFE01E0FFF789FFA57798
:100840003EBD0000F9F10601F9F10602F9F10603D7
:10085000000000204C00002010B50949044600208B
:10086000087040F22F11074A012000F0BFFC064932
:10087000887F1E2803D20C54887F401C887710BDC7
:10088000000000208D0800084C00002001490120D4
:10089000087070470000002030B50C460A46A1B031
:1008A000054601466846FFF76FFC2146284600F0E2
:1008B0002DFD0DF80400641CE1B2684600F00EF94D
:1008C00021B030BDFEE7704708B54FF4C06000F0BE
:1008D0003BF81E208DF8000001208DF802008DF8F5
:1008E0000300684600F001F808BDF0B50F22C57896
:1008F00003784FF0E0210124E5B1D1F80C5D467892
:1009000005F4E065C5F5E0652D0AC5F10407EA4088
:100910008578BE40154035430B442A0183F80024F6
:100920000078420900F01F00844001EB8200C0F80B
:100930000041F0BD03F01F008440580901EB800026
:10094000C0F88041F0BD0000024908430249086038
:10095000704700000000FA050CED00E07047000051
:10096000044A0029D16901D0014300E08143D161EB
:100970007047000000100240044A0029916901D02C
:10098000014300E081439161704700000010024084
:1009900070B52E494A682E4B12F00C0204D02D4C33
:1009A000042A03D0082A03D0036029E0046027E06A
:1009B0004A684B6802F47012920C0D2A03F48033DB
:1009C00001D0921C00E00622BBB1CB6ACD6A13F4C1
:1009D000803F05F00F0303F1010334D0CD6ACE6AE6
:1009E000C5F303156D1CB4FBF5F5C6F30324A41C75
:1009F0006543B5FBF3F35343D6E7174B5A43026005
:100A00004A68164B02F0F00212099C5C0268E24050
:100A100042604C6804F4E064240A1C5D22FA04F489
:100A200084604C6804F46054E40A1B5DDA40C260E0
:100A300049680A4B01F44041890B1B1F595CB2FB0A
:100A4000F1F1016170BDB4FBF3F3D4E70010024093
:100A500000127A0040787D0100093D001800002056
:100A600038B501210820FFF787FF4FF44060ADF84B
:100A7000000003208DF802001020084C8DF80300C0
:100A800069462046FFF79EFC21152046FFF71FFD13
:100A9000E1142046FFF71BFD38BD0000000C0140AB
:100AA00008B501212020FFF767FF03208DF8020021
:100AB00010208DF803008020ADF800006946024840
:100AC000FFF780FC08BD000000140140FFF7C4BE22
:100AD0000149802008607047101401400A46014611
:100AE000002000F0D3BB000001498020086070475F
:100AF000141401407047000029480021026842F4A4
:100B0000803202604FF4A0630268491C12F4003F77
:100B100001D19942F8D1016889033FD521490A687A
:100B200042F010020A600A6822F003020A600A68B2
:100B300042F002020A6041684160416841604168D8
:100B400041F480614160C16A174A1140C162C16AC3
:100B5000164A1143C162016841F080610160016879
:100B60000901FCD5416821F47C114160416841F4E0
:100B7000E8114160016841F08071016001688901FC
:100B8000FCD5416821F003014160416841F0020158
:100B900041604168C1F381010229FAD17047000028
:100BA000001002400020024000F0FEFF4406010059
:100BB00070470000124810B5016841F00101016062
:100BC0004168104A1140416001680F4A11400160BC
:100BD000016821F480210160416821F4FE01416037
:100BE000016821F0A05101604FF47F018160002174
:100BF000C162FFF781FF05494FF00060086010BD3A
:100C0000001002400000FFF0FFFFF6FE08ED00E0DC
:100C100070B502214C07204600F095F8204D50B1E8
:100C20000221204600F080F800220221204600F038
:100C300096F8286880470421204600F084F850B1D7
:100C40000421204600F070F800220421204600F024
:100C500086F8686880470821204600F074F850B193
:100C60000821204600F060F800220821204600F00C
:100C700076F8A86880471021204600F064F8002824
:100C80000CD01021204600F04FF800221021204601
:100C900000F065F8E868BDE87040004770BD0000EE
:100CA0003C00002010B50E4C0121204600F04BF80E
:100CB00001280ED10121204600F036F8094A1168BA
:100CC000491C1160022904D100200749106002204C
:100CD00008602046BDE81040002100F028B8000060
:100CE0000008004010000020040000203EB504462B
:100CF00001210420FFF734FE48F69F40641EADF842
:100D00000000ADF804400020064CADF80200694632
:100D1000204600F035F801221146204600F01FF869
:100D20003EBD000000080040C94301827047002911
:100D3000018802D041F0010101E021F001010180B0
:100D40007047808C704702460020138A92890B42BC
:100D500002EA010202D0002A00D001207047002AD6
:100D6000828901D00A4300E08A43828170478186EC
:100D700070470187704781877047A0F8401070471F
:100D800030B502881B4B1C4C98420DD0A0420BD0B2
:100D9000B0F1804F08D0194DA84205D0184DA84297
:100DA00002D0184DA84203D122F070054A882A4388
:100DB000154DA84206D0154DA84203D022F4407527
:100DC000CA882A4302808A88984282850A880285D6
:100DD0000AD0A04208D00E4A904205D00D4A904257
:100DE00002D00D4A904201D1097A01860121818207
:100DF00030BD0000002C01400034014000040040E0
:100E000000080040000C00400010004000140040AA
:100E1000004001400044014000480140014800F00A
:100E2000A7B80000F000002070470029818902D097
:100E300041F4005101E021F400518181704770B507
:100E400001F01F0601220025C1F3421302FA06F445
:100E5000012B0FD0022B0FD0838A4FEA112100887B
:100E6000234202FA01F200EA020001D000B101259A
:100E7000284670BD8389F0E7038AEEE710B5C1F319
:100E8000421301F01F040121A140012B07D0022BC6
:100E900007D01430002A026805D00A4304E00C3061
:100EA000F8E71030F6E78A43026010BD30B504461B
:100EB000008A85B00D464CF6FF710840E988014371
:100EC0002182A1894EF6F3100140A8882A89104397
:100ED0006A890A431043A081A08A4FF6FF41084067
:100EE000A9890143A1826846FFF752FD1B4884424D
:100EF00001D1039800E00298A1890904002900EBC0
:100F0000C00101EB0010296802DA4FEA410101E05B
:100F10004FEA8101B0FBF1F06422B0FBF2F14FEA3D
:100F200001114FEA11136FF018056B43A58900EB0F
:100F300083004FF032032D0406D503EBC000B0FB55
:100F4000F2F000F0070005E003EB0010B0FBF2F058
:100F500000F00F000843208105B030BD003801408B
:100F60008088C0F308007047C1F308018180704792
:100F70002DE9F0410446006840F22551FFF75FFF7C
:100F80000025B8B12068FFF7EBFFE28AA168C0B284
:100F90008854E18A491C8AB2E282E1898A4200D3FC
:100FA000E582628B8A4202D2618B491C6183616A4D
:100FB00001B1884740F2277739462068FFF73FFFA5
:100FC00040F2266690B1A08AC0B900223946206856
:100FD000FFF754FF31462068BDE8F0410122FFF7DA
:100FE0004DBFA08A401EA082BDE8F0813146206836
:100FF000FFF725FF0028F7D0A08A70B1618A6068EA
:10100000415C2068FFF7B0FF608A401C80B26082BC
:10101000A1898842E5D36582E3E700223146206852
:10102000FFF72CFF206A0028DED0BDE8F041004722
:10103000184917484FF48062086001F128004860A1
:1010400000F5806088608A81CA8100200882488219
:10105000C8820883488388820F4BCB610F4B0B6299
:101060000F4B4B6201F628010E4B0B6001F1280378
:101070004B6001F585638B608A81CA810882488252
:10108000C882088348838882C861086248627047C2
:1010900000380140F0000020D10A0008E90A0008E9
:1010A000CD0A000800440040FEE702E008C8121F15
:1010B00008C1002AFAD170477047002001E001C141
:1010C000121F002AFBD1704710B500F045F8FFF75A
:1010D0007FF8FFF7F5F8FFF793FAFFF7F5FBFFF757
:1010E000BFFCFFF767FABDE8104000F065B80000EC
:1010F0007FB501210846FFF733FC15481549002448
:1011000000684FF080454008B0FBF1F04FF6FF71EA
:10111000ADF80410ADF80000ADF80640ADF802409F
:1011200069462846FFF72CFE01212846FFF7FFFD00
:101130001C208DF80C0004208DF80D008DF80E4059
:1011400001208DF80F0003A8FFF7CFFB7FBD000043
:101150002800002040420F0030B40021134A084606
:1011600001EB410402EB840358609860587002F868
:101170002400491CC9B20429F2D30D494FF47A72F4
:101180000968B1FBF2F1B1F1807F0CD221F07F420E
:101190004FF0E021521E4A61064BF0221A7088611E
:1011A0004FF00700086130BCFFF7A2BF40110020DC
:1011B0002800002023ED00E008B5FFF739FFFFF716
:1011C0008BF9FFF76DFC4FF4A060FFF7BDFB252006
:1011D0008DF8000000208DF801008DF8020001203C
:1011E0008DF803006846FFF780FB08BD2DE9F0414C
:1011F000044616460D46052900D34D1F4FF0804783
:101200003846FFF79EFD20492844012C15D0022CBA
:101210001FD0032C29D0042C33D1CE6081B23846A4
:10122000FFF7ABFD10213846FFF77EFD01221021AC
:101230003846BDE8F041FFF792BD0E6081B23846F6
:10124000FFF795FD02213846FFF76EFD01220221CE
:10125000EEE74E6081B23846FFF78BFD0421384639
:10126000FFF762FD01220421E2E78E6081B2384679
:10127000FFF781FD08213846FFF756FD01220821BE
:10128000D6E7BDE8F08100003C0000202DE9F041E8
:1012900088461546FEF7CEFF04002ED0E06900B167
:1012A00080470020012201461DE0A68982F31088B4
:1012B000A38A81F310889E42F8D918F80030278A53
:1012C0006668F35582F31088238A5B1C9BB22382E5
:1012D000A689B34200D32182A38A5B1CA38281F337
:1012E0001088401C80B2A842DFD32068BDE8F041DE
:1012F000012240F22771FFF7C1BDBDE8F081FFF781
:1013000059FCFFF7E1FEFFF761FAFCE70246002017
:1013100002E0535C1844C0B20B00A1F1010189B294
:10132000F7D1704744130008000000204C00000073
:10133000AA100008901300084C000020241500009B
:10134000BA100008000000000000000000000000CB
:101350000000000000000000020406080000000079
:1013600001020304010203040607080900A24A045B
:101370000000000000000000010203040607080945
:10138000000000000000000000000000000000005D
:04000005080001519D
:00000001FF
